:03000000020200F9
:04000B000EC28D3262
:1002000075A882759001D288758911919BB1067588
:100210008C00758A007E00748091D8B1069006002B
:1002200091F8B10674C091D8B10690061191F8B159
:1002300029759011D28C3090FDC28C75900091334D
:100240009133913391338F3691338F3591338F348E
:1002500091338F3391338F32748091D8B1069006E9
:100260003191F874C091D8B10690062291F8E53228
:10027000243091E7E533243091E7E534243091E7E9
:10028000E535243091E7E536243091E790062E914C
:06029000F8B11702020F95
:100400008530F074F055F0C4B40907793029F560EF
:10041000800940F77940940929F560740F55F0B4CC
:100420000907793029F561800940F7794094092955
:10043000F56122E58A75F00A84F8A9F0E58C75F07B
:100440000A84FAABF0EE75F00A84ADF0FE74198DF3
:10045000F0A42AFC74068DF0A475F00A84AAF02C8E
:10046000F58C74198BF0A428F874068BF0A475F041
:100470000A84ACF028F8EA75F019A4FDEA75F006D4
:10048000A475F00A8428A8F0F58AEA2C2975F00AE8
:1004900084AFF0858AF025F0F58A2275A038C280F5
:1004A000C281D282B106C282B10675A00CC280C2DE
:1004B00081D282B106C282B10675A001C280C2811A
:1004C000D282B106C282B10675A006C280C281D2B4
:1004D00082B106C282B10622F5A0C280C281D28258
:1004E000B106C282B10622F5A0D280C281D282B109
:1004F00006C282B106B10622C0E0E493600591E72E
:0E050000A380F7D0E022C000C0017A0179FF8D
:10050E00D9FEDAFAD001D0002278C8758D3C758BF1
:10051E00B0C28FD28E308FFDD8F1227850758D3CBF
:10052E00758BB0C28FD28E308FFDD8F12230F7048A
:10053E0074318002743091E7B10630F60474318064
:10054E0002743091E7B10630F504743180027430D4
:10055E0091E7B10630F40474318002743091E7B142
:02056E00062263
:10060000202020546F67676C6520535731202020CD
:100610000020206966204C454420676C6F7773206A
:100620002000436F756E74206973200020006D7385
:1006300000205265616374696F6E2054696D652096
:02064000200098
:00000001FF
