:03000000020200F9
:1002000075701275712375A000716B7100716B753B
:1002100089017480713D716B900400715D716B7424
:100220004974C4713D716B900444715DE570C4F50F
:10023000F0718EE570C4F590717C7480713D716BC6
:10024000900411715D716B74C4713D716B900444C5
:10025000715D8570F0718E857090717C7480713DD8
:10026000716B900422715D716B74C4713D716B9000
:100270000444715DE571C4F5F0718EE571C4F590CB
:10028000717C7480713D716B900433715D716B741E
:10029000C4713D716B900444715D8571F0718E8500
:0702A0007190717C02021253
:1003000075A038C280C281D282716BC282716B7556
:10031000A00CC280C281D282716BC282716B75A047
:1003200001C280C281D282716BC282716B75A006DC
:10033000C280C281D282716BC282716B22F5A0C26F
:1003400080C281D282716BC282716B22F5A0D28091
:10035000C281D282716BC282716B716B22C0E0E488
:10036000936005714CA380F7D0E022C000C0017AF1
:100370000179FFD9FEDAFAD001D000227828758CF5
:100380003C758AB0C28DD28C308DFDD8F12230F709
:1003900004743180027430714C716B30F604743126
:1003A00080027430714C716B30F5047431800274CA
:1003B00030714C716B30F404743180027430714CC4
:0303C000716B223C
:10040000202020204C6576656C2031202020202083
:1004100000202020204C6576656C20322020202092
:100420002000202020204C6576656C203320202081
:10043000202000202020204C6576656C2034202070
:0B0440002020200056616C75653A001A
:00000001FF
