:03000000020200F9
:03000B00020300ED
:10020000C28775891175A8827112717D7480714FD2
:10021000717D900400716F9011B57903E583F4F559
:1002200083E582F4F582A385838C85828A710B90A5
:100230000FC67903E583F4F583E582F4F582A3859F
:10024000838C85828A710B900D397903E583F4F5EF
:1002500083E582F4F582A385838C85828A710B9075
:100260000FC67903E583F4F583E582F4F582A3856F
:10027000838C85828A710B900A857904E583F4F575
:1002800083E582F4F582A385838C85828A710B9045
:1002900000007902E583F4F583E582F4F582A38515
:1002A000838C85828A710B900A857904E583F4F545
:1002B00083E582F4F582A385838C85828A710B9015
:1002C0000BCD7904E583F4F583E582F4F582A3850B
:0702D000838C85828A710B0B
:10030000C28D85838C85828AB28732C28DC28F71FD
:100310008E2275A038C280C281D282717DC2827164
:100320007D75A00CC280C281D282717DC282717D36
:1003300075A001C280C281D282717DC282717D7539
:10034000A006C280C281D282717DC282717D22F5F7
:10035000A0C280C281D282717DC282717D22F5A04D
:10036000D280C281D282717DC282717D717D22C0B4
:10037000E0E4936005715EA380F7D0E022C000C086
:10038000017A0179FFD9FEDAFAD001D0002275F0A6
:100390000AE9A4F8D28CD287758D3C758BB0C28FD8
:1003A000D28E308FFDD8F1C28EC28C2230F7047409
:1003B0003180027430715E717D30F60474318002D8
:1003C0007430715E717D30F5047431800274307167
:1003D0005E717D30F404743180027430715E717D21
:0103E00022FA
:100400002020524F4C4C494E472054494D45202006
:0104100000EB
:00000001FF
