:03000000020800F3
:0C080000787FE4F6D8FD75810C020847F3
:1008F50020202020202020612020202020202020B2
:1009050000202020202020206220202020202020C0
:1009150020002020202020202063202020202020AF
:10092500202000202020202020206420202020209E
:10093500202020002020202020202065202020208D
:0509450020202020002D
:040A7500020B000070
:10094A00E4F5A0C282C280C2817F38FE120A307FDB
:10095A00047E001209A27F067E00120A307F047EFE
:10096A00001209A27F0C7E00120A307F047E001258
:10097A0009A27F017E00120A307F047E001209A2BA
:07098A007F807E00020A30AD
:10099100120A007FE87E031209A2120A187FE87E7C
:0109A1000352
:1009A200E4FDFCC3ED9FEC9E5015E4FBFA0BBB008B
:0F09B200010ABA01F8BB7EF50DBD00010C80E40F
:0109C1002213
:100A3000C280C281D2828FA07F0A7E001209A2C228
:020A4000822210
:100A4200D280C281D2828FA07F0A7E001209A2C206
:020A52008222FE
:1009C2008B088A09890AAB08AA09A90A1209E760F1
:1009D20013050AE50A7002050914F91209E7FF1264
:0509E2000A4280E22240
:100A0000900000B2877F027E001209A2A3E582B4A3
:070A1000BCF1E583B402EC28
:010A170022BC
:100A1800900000B2877F027E001209A2A3E582B48B
:070A280054F1E583B401EC79
:010A2F0022A4
:060A690012099B020A00C5
:090A600012099112099B020A1807
:0C0A5400120991120A0012099E020A18F1
:060A6F00120991020A18B1
:030A7A00020A1855
:10088C00E4F58012094A75900FAF90EF6401700E79
:10089C007BFF7A0879F51209C2120A698049AF9078
:1008AC00EF6402700E7BFF7A0979061209C2120AF4
:1008BC00608034AF90EF6404700E7BFF7A09791777
:1008CC001209C2120A54801FAF90EF64087BFF70AC
:1008DC000C7A0979281209C2120A6F800A7A0979EE
:0908EC00391209C2120A7A80FED9
:10080C0002088CE493A3F8E493A34003F68001F26E
:10081C0008DFF48029E493A3F85407240CC8C333ED
:10082C00C4540F4420C8834004F456800146F6DFBC
:10083C00E4800B0102040810204080900A75E47ECD
:10084C00019360BCA3FF543F30E509541FFEE493B1
:10085C00A360010ECF54C025E060A840B8E493A378
:10086C00FAE493A3F8E493A3C8C582C8CAC583CAA3
:10087C00F0A3C8C582C8CAC583CADFE9DEE780BE5B
:010A7900007C
:1009E700BB010689828A83E0225002E722BBFE020E
:0909F700E32289828A83E4932241
:00000001FF
